:020000022000DC
:10600000000004200D8202004D8202004F82020037
:1060100051820200538202005582020000000000FB
:106020000000000000000000000000008D81020060
:106030005982020000000000AD8102005D82020072
:10604000D9AD02007D6502005F8202005F8202001E
:106050005F8202005F8202005F8202005F820200B4
:106060005F8202005F8202005F8202005F820200A4
:106070005F8202005F8202005F8202005F82020094
:106080005F820200B57F02005F8202005F82020031
:106090005F8202005F8202005F8202005F82020074
:1060A0005F8202005F8202005F820200D5710200FF
:1060B0005F8202005F82020000000000000000001A
:1060C0005F8202005F8202005F8202005F82020044
:1060D0005F8202005F8202005F820200ED92020096
:1060E0005F82020039AB02005F8202000000000004
:1060F000000000005F820200000000005F820200DA
:10610000000000000000000000000000000000008F
:10611000000000000000000000000000000000007F
:10612000000000000000000000000000000000006F
:10613000000000000000000000000000000000005F
:10614000000000000000000000000000000000004F
:10615000000000000000000000000000000000003F
:10616000000000000000000000000000000000002F
:10617000000000000000000000000000000000001F
:10618000000000000000000000000000000000000F
:1061900000000000000000000000000000000000FF
:1061A00000000000000000000000000000000000EF
:1061B00000000000000000000000000000000000DF
:1061C00000000000000000000000000000000000CF
:1061D00000000000000000000000000000000000BF
:1061E00000000000000000000000000000000000AF
:1061F000000000000000000000000000000000009F
:1062000010B5054C237833B9044B13B10448AFF3F0
:1062100000800123237010BD103700200000000013
:1062200068E1020008B5034B1BB103490348AFF313
:10623000008008BD000000001437002068E1020063
:10624000154B002B08BF134B9D46A3F5803A002148
:106250008B460F461348144A121A05F0A3FB0F4B46
:10626000002B00D098470E4B002B00D09847002001
:10627000002104000D000D48002802D00C48AFF3A7
:10628000008005F025FB2000290001F0FFFF05F04C
:106290000BFB00BF0000080000000420000000000D
:1062A0000000000010370020585D002000000000B2
:1062B000000000001F2886BF00F01F00044A4FF0B6
:1062C000A042012303FA00F0C2F80805704700BF9E
:1062D000000300501F2886BF00F01F00044A4FF043
:1062E000A042012303FA00F0C2F80C05704700BF7A
:1062F0000003005070B5554A554E1378554C002593
:10630000356003F0FF01002B00F08280524B1988AA
:10631000524BB3F80900884207D11570B3F8032037
:10632000B3F801306281238101254D4A137883B18E
:10633000494B19884B4BB3F80500884209D100211D
:10634000117049491A681B79226148480B7100F0A5
:10635000FEFE002D5ED1638940F2E24058435FD0DB
:1063600000F06CFF002D47D13B4A404813880133B1
:106370009BB2138000F010FF3D4908703D48037840
:10638000002B51D03C4B1B6833603C4B1B785BB1FE
:106390003B4A1378052B9BBF137801330023DBB2F4
:1063A0008ABF13701370037032682AB3334B1B78A3
:1063B000002B46D033481378007800283BD043F0B8
:1063C000080331481370326800781378002835D0FC
:1063D00043F0040313702D4B62790978306801256E
:1063E0001D70237943EA0223A27943EA024322681B
:1063F00000F054FD264B1D7026490B78062013BB78
:10640000FFF768FF0B78B3FA83F35B090B7070BD7D
:106410000D468AE7238940F2E24003FB00009FE734
:10642000284600F00BFF9FE71B4B1B78002BBBD0CF
:106430001A4B3360B8E723F00803C2E723F00403E4
:10644000C8E70370C7E7FFF735FFDBE7533A0020E3
:10645000583A0020323A0020303A0020483A0020D2
:106460002F3A0020283A0020423A002078370020B6
:10647000683A00205C3A00207C3A00200A34002070
:106480005D3A0020713A0020703A0020783A0020EE
:10649000613A0020003400200B3400200534002035
:1064A00008B5104B1B78E3B90F490B780620ABB940
:1064B000FFF710FF0B78B3FA83F35B090B700B4BFC
:1064C0001A780132D2B2272A88BF25221A70084AC8
:1064D00018781168BDE8084000F060BCFFF7EAFEDC
:1064E000E8E708BD783A002000340020683A002030
:1064F000643A002002F000B870B5074D0024014452
:10650000E0B2834203D90E5D66550134F8E70349D2
:106510000A70034A137070BD803A0020913A00203F
:10652000903A0020F8B5114B1A7802F0FF00E2B162
:106530000F4A1978DFF840C00E4F1668C9B2002222
:10654000D0B281420AD9B518387812F80C40285CCC
:10655000844202F10102F3D0002006E0002216205E
:1065600001211A7003F0D6F80120F8BD903A0020FE
:10657000743A0020913A0020803A0020524BD3F820
:10658000002170B522B10022C3F8002101229A60D7
:10659000D3F80C21002A00F0968000254B4CC3F85C
:1065A0000C51227802F0FF06002A32D0484B2570A9
:1065B0001A7852B31D70474B474C484801221A7055
:1065C000238940F2E24103FB011101F5967100F0CD
:1065D0000FFE434B22681D80424B43481A6062798C
:1065E000237943EA0223A27943EA02433F4A04F1B2
:1065F0001001136000F018FD617D3B4801F01F01A0
:1066000000F0C3FD384800F0C3FDBDE8704000F065
:106610008FBC01259D60D3F80034002B53D0FFF7C9
:1066200081FFC8B1324B4FF4B4502B4398472F4BE6
:106630002C4A304930481B68126809780068257078
:1066400000F02CFC2D4A1378DBB2AB4204D116705B
:106650001F4A137000F0F8FD29490C686378981CF4
:10666000FF2830D8184AD2F80C2422540C6804446D
:10667000150A65700C682044120C82700933214A97
:10668000DBB21370134A107880B11F4B1B786BB1CB
:106690000B681E491B780878C3F38003984212D018
:1066A0000B701B481B49002404700B7013783BB11E
:1066B00000F0DEFD184B002118600D2003F02AF8D1
:1066C000164B01221A7070BD00100040783A00206D
:1066D000923A0020723A0020323A0020F56202001D
:1066E000303A0020643A0020783700206C3A0020CD
:1066F00030DC0200683A00207C3A0020693A002031
:10670000743A0020603A00200A340020703A0020D9
:106710005C3A0020713A0020543A00205F3A002091
:1067200008B500F091FD104B104900221A70104B73
:10673000104A1960104B1A60104B2520187000F099
:106740002DFB0F490F4800F053FD01210D2002F0F1
:10675000E1FF01210C2002F0DDFF01211620BDE840
:10676000084002F0D7BF00BF723A0020D6BE898E23
:10677000643A0020555555006C3A0020683A0020D4
:1067800090D00300A164020038B51E4C1E4A236855
:106790001D78137805F00F052BB1002313701B4AE9
:1067A0001370FFF7BDFF052D0BD006230222082131
:1067B0002068FFF7A1FE00211620BDE8384002F056
:1067C000A9BF00F041FD2068114B00F10E0200F15D
:1067D00022011C4652F8045B43F8045B8A42F9D15B
:1067E00012881A80082106230222FFF785FE63899A
:1067F0003BB1084B01221A7000F03AFD064B1860BD
:10680000D9E738BD7C3A0020723A00205C3A00207B
:10681000323A0020693A0020543A0020164B1B6897
:106820001A7802F00302032A03D19A785AB1012A96
:1068300017D0124B1B782BB1114B01221A70114B40
:1068400000221A707047104A53F8031F11605968EC
:106850005160198911819B7A93720C4B01221A7035
:10686000E7E753F8030F0A490860988888809B7906
:106870008B71084BF3E700BF7C3A0020723A00208E
:106880005C3A00205D3A0020483A0020533A00204C
:10689000283A00202F3A002010B501210C2002F0E8
:1068A00011FF01210D2002F00DFF0121162002F041
:1068B00009FF01210C2002F02DFF01210D2002F023
:1068C00029FF0121162002F025FF4FF0A0410324EB
:1068D000C1F84C471320FFF7EDFCC1F818470F4CE7
:1068E0000620FFF7E7FC20460D4901F004FE0A21CF
:1068F000204600F0BBFC40F20B1005F00DF8094BF0
:106900000930186040F20B1005F006F8064B09300C
:10691000BDE810401860FFF703BF00BFFC41002036
:1069200040420F00743A00207C3A002008B5044829
:1069300000F04EFC034B002283F8482008BD00BF46
:10694000783700202C3700200A46A72330B400F8FF
:10695000053C131200F8033C0D4B00F8042C1C8876
:1069600000F8024C1B881B0A00F8013C411F04463A
:106970000023251AADB2AA4204D914F8015B2B44B6
:10698000DBB2F6E783540632024830BC01F099BD11
:10699000303A0020FC4100200A46BB2330B400F806
:1069A000053C131200F8033C0D4B00F8042C1C8826
:1069B00000F8024C1B881B0A00F8013C411F0446EA
:1069C0000023251AADB2AA4204D914F8015B2B4466
:1069D000DBB2F6E783540632024830BC01F071BDE9
:1069E000303A0020FC410020A94B2DE9F74FD3F8A5
:1069F000002112B10022C3F80021A64B1B789BB1E5
:106A0000A54B1A7882B100221A70A44B1868A44BC7
:106A10001A1D904202BFA34A12681A6041780931D8
:106A2000C9B20438FFF7B8FF9F4B1A7842B1002271
:106A30001A709E4B19789E4B18680438FFF784FF34
:106A40009C4B1A78984692B100F012FC9A4B1B6846
:106A5000C01A9A4BDA890A235343984207D9012175
:106A60000D2002F057FE00210C2002F053FE944C42
:106A7000944F254694F84830D3B3934B1B78BBBB57
:106A8000924B1B7803F0FF0693BBDFF85C922288E1
:106A9000D9F80000A1690432043804F05FFFA0694E
:106AA00004F042FF94F8481032460139D3B28B42C9
:106AB00002F101020BDADE1D581C55F826C09E1D9E
:106AC00045F826C035F8100025F81300EEE7D9F890
:106AD000003053F8043CBB4207D1FFF755FE95F850
:106AE0004830013B85F84830C4E7FFF797FEF6E7EA
:106AF000774E784FDFF8F491304601F0D1FC002852
:106B000000F0F680304601F0CEFCC0B2A72820D0BD
:106B100011DC662862D0A628EED101220DF1050114
:106B20003046FFF7E7FC9DF80530C72BE4D1132072
:106B3000FFF7D0FBE0E7AA2800F0A380CC2800F004
:106B4000A380A928D8D1644901223046FFF7D2FC9E
:106B5000D2E73B7803F0FF0A002BCDD102220DF1E2
:106B600006013046FFF7C6FCBDF806B0BBF5877FCF
:106B7000C2D20BF1050004F0CFFE0BF10102014679
:106B800004463046FFF7B6FCBDF8061053465246A1
:106B900018B2884203F1010303DA205C0244D2B246
:106BA000F6E7635C934214D195F848300C2B08D873
:106BB0009A1D25F8131045F82240013385F8483016
:106BC0009AE7204604F0B0FEA121304601F070FCA7
:106BD00092E7204604F0A8FEA821F6E701220DF175
:106BE00005013046FFF786FC9DF80530BBB33B78C6
:106BF00003F0FF04002B7FF47FAF00F025FB334B45
:106C00004FF0010A87F800A01C702F4B88F8004055
:106C10001C70324B1C70324B1C70324B21461620BC
:106C20001C7002F077FD21460C2002F073FD5146E6
:106C30000D2002F06FFD51460E2002F06BFD95F81D
:106C4000483004F1010AE4B2A34206D9063455F8EB
:106C5000240004F069FE5446F1E70023AEE73A78D9
:106C6000002A3FF449AF194A3B701370084AC2F832
:106C70000031C2F80C319360134A1370FFF750FDD6
:106C80003AE70122494660E7012202495DE700BF79
:106C900000100040733A0020613A0020583A00206A
:106CA00001340020643A00205F3A0020603A00205E
:106CB000743A0020723A0020543A0020323A002000
:106CC0002C370020D6BE898E5C3A0020783A00200E
:106CD000FC4100205E3A00200B340020533A002093
:106CE0002F3A0020693A00207C3A00200A34002024
:106CF0000E4B1B78ABB10E4B1A7892B90D4A0E4869
:106D0000106001221A700D4C0D4B0E4A1B68126860
:106D1000217800F0C3F82378262B8CBF252301337C
:106D2000237040BF20BF03B0BDE8F08F5E3A002063
:106D3000783A00207C3A002005340020683A002090
:106D40006C3A0020643A002025280AD026280AD070
:106D500027280AD00A28D4BF023003304000C0B22E
:106D60007047022070471A2070475020704700007B
:106D7000084BD3F8502562B1074A0221C2F88010AF
:106D80000022C3F8102101221A61D3F81021002A31
:106D9000FBD070470010004000E100E070B50646EF
:106DA0000C46FFF7E5FF4FF080430022C3F80021B7
:106DB00001221A60D3F80021002AFBD0324B0422B2
:106DC0000025C3F80C25C3F82C55D3F8302542F024
:106DD0000102C3F830250322C3F810253046FFF71F
:106DE000B3FF220EC3F80805C3F85465C3F8242581
:106DF0002202C3F81C254FF48472C3F81425234AD9
:106E0000C3F81825D3F8502642F00102C3F85026E3
:106E100040F25B62C3F8382540F20312C3F8342510
:106E20001B4AC3F83C251B4A1168081F106001F873
:106E3000044C1168C4F3072048701168C4F307407C
:106E400088701168C4F30764CC7011680431116054
:106E50000822C3F80415C3F804230F4A602182F8FE
:106E600001130221C2F8801111600122C3F8005100
:106E70005A60D3F80021002AFBD00022C3F80C216D
:106E800001229A6070BD00BF00100040FB000302A9
:106E900055555500743A002000E100E02DE9F0411D
:106EA000204C0026C4F8006215460F469846FFF7AE
:106EB0005FFF1D4AC4F804050223C2F88031136045
:106EC0000423C4F80C353846C4F84465FFF73CFF8A
:106ED000164AC4F808051168C4F854750323C4F8A9
:106EE00000320B1F136001F8045C1368C5F307211F
:106EF00059701368C5F3074199701368C5F30761AA
:106F0000D97011682B0E043111602D02C4F824359C
:106F10000123C4F81C55C4F83C85C4F80061236003
:106F2000BDE8F0810010004000E100E0743A00206C
:106F30000E4B1A680E4BC3F804250E4A022101209D
:106F4000C2F88010C3F80002C2F88011116000225C
:106F5000C3F810211861D3F81021002AFBD00022B9
:106F6000C3F8002101225A60704700BF743A002024
:106F70000010004000E100E070B52526002506FB6A
:106F80000101E81890FBF6F406FB14000C5C944237
:106F900004D00135252DF4D14FF0FF3070BDF8B588
:106FA0001F46002305460E46FFF7E6FF3A46044615
:106FB000034631462846FFF7DFFF031B8442A8BF84
:106FC00025331846F8BD2DE9F04106460D46174613
:106FD00098460024214643463A463046FFF7DFFFF5
:106FE000285501340C2CF5D1BDE8F081F0B5002412
:106FF00023462526C51895F8E151012D1FBFD0F86D
:107000009C7293FBF7F507FB15352D180EBF135532
:1070100095F8BC51155501340B44252C93FBF6F51E
:1070200006FB1533E6D1F0BD2DE9FF47002301AE85
:10703000C6E9013300F2E117044601933846DA103D
:1070400003F007058A5C01332A4102F00102252B77
:1070500000F8012BF3D101F125020023C84311F8F8
:10706000015B012D01BFE51800EB010C85F8BCC1E7
:1070700001338A42F3D1C4F89C32A046052542462A
:10708000294620460135FFF7B1FF112D08F12508EB
:10709000F5D1B9464FF0000819F8013B012B4DD14D
:1070A00004F5DE70234600250022114613F801C0C6
:1070B000C44501D1EABB012201312529F6D125338E
:1070C0009842F1D1D5BBC4F8A082BA461AF8013B68
:1070D000012B30D12B46D4F8A02231462046FFF7B1
:1070E00072FF002213460132B11811F8010C11464B
:1070F00016F801C00131844508BF01230C29F7D1DE
:107100000B2AF0D1BBB9C4F8A45204F5027204F5FD
:10711000277142F8043B9142FBD10523F21812F883
:10712000052C823244F822300133112BF6D1012094
:107130000AE01546C3E70135252DC7D108F101083E
:10714000B8F1250FA8D1002004B0BDE8F08730B514
:1071500000221346DC1003F007050C5D2C41E40708
:1071600042BF8418013284F8BC310133252BF1D1A0
:10717000C0F89C224B1E00F2E110243113F8012FBD
:1071800000F8012B8B42F9D130BDC0F8A81270472E
:107190000023C0F8AC327047D0F8AC32D0F8A82247
:1071A00025211A4492FBF1F301FB1323C218C0F806
:1071B000AC3292F8E121012A08D0D0F89C1293FB5E
:1071C000F1F201FB1233184490F8BC3118467047B5
:1071D00070470000044B0022C3F84021034B1B689A
:1071E00003B11847704700BF00B00140943A002037
:1071F0000F4B10B518600F4B0F484FF0006403227F
:10720000C0F88041C3F808254FF48032C3F8401518
:10721000C3F8042304210122C3F80022C3F8101587
:107220006021046080F81B13DA601A6010BD00BF93
:10723000943A002000B0014000E100E0014BC3F8A7
:107240004005704700B00140064B4FF00062C3F8A4
:107250008020054B0022C3F840210122DA605A60E9
:10726000704700BF00E100E000B00140816070475E
:1072700008B500F0DBF94FF47A72A0FB0223900A04
:1072800040EA835008BD00002DE9F041044600F0BB
:107290007DFE314B314D1A68314E01321A602A6839
:1072A000002A4FD12C601B68012B25D12D48DFF817
:1072B000EC802D4F02F050FA2C4802F04DFA2C4889
:1072C00002F04AFA2B4802F047FA2B4802F044FA3F
:1072D000404602F041FA384602F03EFA274802F0F2
:1072E0003BFA274802F038FA264802F035FA264BD6
:1072F000C3F80080254B1F60254A136801331360D3
:10730000244AE3631168E36A8B4288BF1360154A1D
:10731000142000FB0320211D02F02CFA00F040FE97
:1073200033686BB12B68DA6AE36A9A4208D21A4B67
:107330004FF080525A6040BFBFF34F8FBFF36F8F43
:10734000BDE8F0813368002BD6D12B68DA6AE36A96
:107350009A4298BF2C60CFE7083B0020983A002063
:10736000683B0020A43A0020343B0020B83A0020BB
:10737000CC3A0020E03A0020F43A0020543B0020B0
:10738000803B00206C3B00209C3A0020A03A00206B
:10739000183B00201C3B002000ED00E0203B0020BB
:1073A000094B0A4A1B681268D06A50B9084A126829
:1073B000012A07D833B9074B1868074B1B68C01A56
:1073C00070470020704700BF1C3B0020983A002007
:1073D000A43A00204C3B0020943B0020064A13684E
:1073E0001968064B19B94FF0FF321A6070471268DE
:1073F000D268D2685268F8E79C3A00204C3B0020E3
:107400002DE9F047DDE9097496000D4632468046C5
:10741000A521206B994604F0C5FA236B043E1E4457
:1074200026F007066B1E04F13402073513F8011F1E
:1074300002F8011B197809B1AB42F7D1089D042D60
:1074400028BF04254FF0000AE562C4E9115A201D47
:1074500084F83BA002F08BF9C5F1050504F1180092
:1074600002F085F9C4F84CA02461A561646284F837
:1074700050A04A464146304600F050FD206007B11A
:107480003C60BDE8F08710B590F8513004463BB938
:10749000006B02F0B2F92046BDE8104002F0ADB931
:1074A000012BF9D010BD0000F8B5164B164E1C6824
:1074B0000546306804300F4602F07FF96B1C3346F6
:1074C00007D137B1316811480431BDE8F84002F006
:1074D00051B91A686419546007D30D4A10681968C5
:1074E000BDE8F840043102F051B90A4A1068196841
:1074F000043102F04BF9084B1A68A24288BF1C60A5
:10750000F8BD00BF943B0020983A00206C3B00205F
:10751000A03A00209C3A00204C3B002030B587B0B8
:10752000DDE90B458DB194B12C63022485F85140FF
:1075300005AC01940A9C02950094FFF761FF284670
:10754000FFF7A2FE059807B030BD2846FBE72046AE
:10755000F9E72DE9F043074685B0900088461646C6
:10756000994602F03BF90546E8B1542002F036F99D
:107570000446A8B1002380F851300D9B05630193A8
:107580000C9B0290009332464B4641463846FFF72B
:1075900037FF2046FFF778FE012005B0BDE8F083F5
:1075A000284602F02AF94FF0FF30F6E710B588B010
:1075B000002407AA06A905A8CDE9054400F052FF5A
:1075C000059B0293069B079A0E490F48CDE900439D
:1075D0002346FFF7A3FF0D4B186080B100F052FB6C
:1075E00001280CD1402383F31188094B4FF0FF325F
:1075F0001A60084B1860084B1C6000F0A1FC08B032
:1076000010BD00BF36DC020009780200483B0020B4
:107610004C3B0020683B0020943B0020024A13684A
:1076200001331360704700BF143B0020014B186802
:10763000704700BF943B0020024A13681844106052
:10764000704700BF943B00202DE9F84F2E4B1B687C
:10765000002B53D12D4B1D6801351D605DB92C4A9F
:107660002C4B1168186810602B4A1960136801339D
:107670001360FFF7B3FE294F3B68AB424FF00006A3
:1076800007D9274B1B68002B0CBF30460120BDE8F3
:10769000F88FDFF87C90DFF894A0DFF894B0D9F889
:1076A00000301B681BB94FF0FF333B60E9E7D9F8A6
:1076B0000030DB68DC6863689D42F6D304F104089F
:1076C000404602F07AF8A36A1BB104F1180002F0F8
:1076D00074F8E36ADAF800201420934200FB03B048
:1076E000414688BFCAF8003002F044F80D4BE26A08
:1076F0001B68DB6A9A4228BF0126D0E70A4A136852
:10770000013313600026BCE7143B0020943B0020AB
:107710009C3A0020A03A0020503B00204C3B002027
:10772000983B0020983A0020103B00201C3B002092
:10773000A43A00202DE9F04100F028FC294B1A68FA
:10774000013A1A601C682CB1002400F029FC204684
:10775000BDE8F081244B1B68002BF5D0234D244E4F
:10776000DFF8A0801DE0EB68DC68271D04F118003D
:1077700002F023F8384602F020F8E36A3268142059
:10778000934200FB0380394688BF336001F0F2FF6B
:10779000184BE26A1B68DB6A9A4202D3164B01223D
:1077A0001A602B68002BDED10CB1FFF717FE134DCA
:1077B0002C6844B1104E0127FFF746FF00B1376037
:1077C000013CF9D12C600C4B1B68002BBCD00C4B3E
:1077D0004FF080525A6040BFBFF34F8FBFF36F8F9F
:1077E0000124B2E7143B0020083B0020543B00205A
:1077F0001C3B0020983A0020983B0020103B0020C2
:1078000000ED00E0A43A0020F8B51B4C1B4F1C4DC6
:107810002368EBB91B4B1B68012B08D91A4B4FF09F
:1078200080525A6040BFBFF34F8FBFF36F8F00F09D
:1078300011FEFFF7B5FD0128E9D9FFF7EFFEFFF7CD
:10784000AFFD012801D900F00BFCFFF773FFDEE765
:1078500000F09CFBFB68DE68301D01F0AEFF2B687A
:10786000013B2B602368013B236000F099FB30460D
:10787000FFF709FECCE700BF0C3B0020803B002057
:10788000083B0020A43A002000ED00E0F8B5194BB9
:107890001A68194B12B101221A60F8BD174C1A6010
:1078A0002268236812681B6B9A4204D820682168FA
:1078B000343100F0CDFD124E124B32684FF0140CF3
:1078C0001F460CFB02F158185D5885B14568083118
:1078D0006D6845600B449D4204BF6B684360142390
:1078E00003FB02735B68DB6823603260D5E7013A13
:1078F000E7E700BF143B0020983B0020983A0020A7
:107900001C3B0020A43A002010B5064B0C46196819
:10791000183101F03BFF20460121BDE81040FFF780
:10792000C3BD00BF983A002038B5084B0D46196812
:107930001446183101F01EFF002C21460CBF2846CA
:107940004FF0FF30BDE83840FFF7AEBD983A002059
:1079500038B5C368DC6804F11805284601F02DFF2E
:10796000114B1B68EBB9251D284601F026FF0F4A75
:10797000E36A11688B4288BF13600D4A14202946C0
:1079800000FB032001F0F6FE0A4BE26A1B68DB6A8B
:107990009A4285BF084B012000201860FFF71EFDAA
:1079A00038BD29460548EDE7143B00201C3B00206C
:1079B000A43A0020983A0020983B0020543B002035
:1079C000034B1B680360034B1B684360704700BF99
:1079D000503B0020943B002070B50C46054600F05B
:1079E000D5FA0F4B1A682368591C0FD00D482E6822
:1079F00000686968864201D091420ED9521A9342BA
:107A000009D99B1A23602846FFF7DAFF002400F00B
:107A1000C7FA204670BD002323600124F7E700BFAA
:107A2000943B0020503B0020014B01221A6070471C
:107A3000983B0020084B186860B9084B1B6853B985
:107A4000074B1868074B1B68013B984214BF012085
:107A50000220704700207047543B0020983B0020D4
:107A60006C3B0020083B0020054B1B6833B1054BE5
:107A70001B68002B0CBF02200020704701207047BC
:107A8000683B0020143B0020F8B5044600282BD0AA
:107A90001B4AC36A1168C96A8B42164627D282699B
:107AA000184D002AA1BF3268D26AC2F10502826174
:107AB000142202FB035342699A4211D1071D384632
:107AC00001F07BFE3368104ADB6A1168E3628B4287
:107AD0000BD81420394600FB035001F04BFE02E0A6
:107AE0003368DB6AC3620120F8BD1360F1E71368F5
:107AF000406CDC6AA0422CBF00200120F4E700BFEC
:107B0000983A0020A43A00201C3B002038B50446D7
:107B100008B9002038BD836CC16A426C013B9142B8
:107B20008364F6D0002BF4D1051D284601F045FEF4
:107B3000636CE362C3F10502A261074A11688B42DC
:107B400088BF1360054A142000FB0320294601F07A
:107B500011FE0120DEE700BF1C3B0020A43A0020FC
:107B600070B5044650B3436C994238BF1946C36A96
:107B70008B4223D0826C012A20D18269104DC162D0
:107B8000002A4FF0140202FB03534269A4BFC1F163
:107B9000050181619A4211D1061D304601F00DFEAA
:107BA000084AE36A116814208B4200FB03503146F7
:107BB000BDE8704088BF136001F0DCBD70BD00BF40
:107BC000A43A00201C3B0020044B1A681AB1196823
:107BD0008A6C01328A641868704700BF983A0020A6
:107BE000F7B5114C00F0D2F92568BDB90F4F104E12
:107BF000384601F0B1FD304601F0AEFD0D4B0E4AA6
:107C00001F600E4B10211E60202000950C4B01F0D0
:107C1000C3FE206010B10B4902F002F903B0BDE8C9
:107C2000F04000F0BDB900BF203E0020A43D002080
:107C3000B83D00209C3B0020A43B0020A03B00203E
:107C4000D03D00203BDC0200914208B5416000615C
:107C50000AD8D21A83699A420DD2084B011D1868BE
:107C600001F094FD002008BD9A4201D2994202D24F
:107C7000011D034BF3E70120F5E700BFA03B002007
:107C80009C3B002010B588B0FFF7AAFF0E4B186888
:107C90000024B8B107AA06A905A8CDE9054400F05B
:107CA000EDFB059B0293069B019302230093079A29
:107CB000064907482346FFF731FC064B1860001BB6
:107CC00018BF012008B010BD203E002040DC02009B
:107CD000857D0200243E00207FB50F4C05462068BC
:107CE00016461A4680B10529CDE9001602950DDC2D
:107CF000FFF7BAFE0023022808BF089A206818BFC1
:107D00001A46694601F07CFE04B070BD0023694646
:107D100001F01DFFF8E700BF203E00202DE9F341F0
:107D2000164D4FF000082B681A6832B9144A1168D2
:107D30002960136002B0BDE8F081DB68DC681E6872
:107D4000271D384601F039FD636A20469847E369EC
:107D5000012BE8D1A36933449E4206D263602461BB
:107D60003946286801F012FDDDE70023CDF80080D8
:107D7000324619462046FFF7AFFFD4E79C3B002070
:107D8000A03B00202DE9F04F5D4D89B0A9464FF092
:107D9000000A2A681368002B4ED0D268D2F800B0CF
:107DA000584C0393FFF73AFCFFF740FC2268564E0D
:107DB000039B90428046274640D2FFF7AFFFC4F8AE
:107DC0000080FFF7B7FC4FF0010B002204A93068D8
:107DD00001F016FF0028DCD0049B002B03DADDE95C
:107DE0000601059B9847049B002BEEDB069C63690C
:107DF00013B1201D01F0E1FCFFF718FC3B6898422D
:107E0000024603D20390FFF789FF039A049B3A606E
:107E1000092BDAD80BFA03F313F4047868D113F0C2
:107E2000C70F4AD19B06D0D594F82C30002BCCD16B
:107E3000204601F0E2FCC8E79B46B1E720600BB3A7
:107E4000834538D8FFF776FCD9F80030DB68DC686A
:107E5000201D01F0B2FCE369012B0FD1A1695B4643
:107E6000424659442046FFF7EFFE38B10023CDF8D3
:107E700000A05A4619462046FFF72EFF636A2046A7
:107E80009847A0E7214B1B681A68B2FA82F25209A0
:107E9000ABEB0801306801F0D1FFFFF74BFC002885
:107EA00091D11B4B4FF080525A6040BFBFF34F8FB0
:107EB000BFF36F8F87E70022EAE7A169059B2046A1
:107EC0001944FFF7C1FE00283FF47FAF636A2046E4
:107ED0009847E369012B7FF478AFA2690599CDF843
:107EE00000800A44434641462046FFF7F5FE6CE712
:107EF0000599A161134611442046FFF7A5FE64E7EA
:107F00009C3B0020CC3D0020203E0020A03B0020D8
:107F100000ED00E0402383F31188FEE74FF080730B
:107F200040E90213054B40F80C3C6FF0020340F8A7
:107F3000202C40F8243C4438704700BF157F0200D5
:107F40000F4C08B5E02384F8223000F06DF80D4B9B
:107F500000221A60D4F888300B4A43F47003C4F846
:107F60008830536843F040435360236943F0100363
:107F7000236100F0F9F8402383F31188FEE700BF86
:107F800000ED00E0283E002030EF00E0402383F3C6
:107F90001188024A1368013313607047283E00209D
:107FA000034A1368013B13600BB983F311887047D0
:107FB000283E002073B5194B00221A601B680193FC
:107FC000019BEFF31186402383F31188144BD3F800
:107FD0000445C3F8002103F580731B680093009BE0
:107FE000FFF724FB241A24F07F44012C04D9FFF767
:107FF0003BFD022818BF0124002514F1FF3409D2EB
:1080000025B1084B4FF080525A6040BF86F311886B
:1080100002B070BDFFF718FB0543EEE740110140C9
:108020000010014000ED00E00A4B0B491F22C3F88D
:1080300008250122C3F804230A601A600222C3F84B
:108040004423064BE02283F811234FF400321A60D8
:10805000704700BF001001400810014000E100E03F
:10806000F0B5054685B0EFF3108072B6374CA368C3
:1080700083B90123A360364B3649D3F880200A40E8
:108080002260C3F88010D3F8842062604FF0FF3282
:10809000C3F8842000B962B62F4FD7F80465FFF704
:1080A000C9FC3B46002841D02C49A94228BF29469B
:1080B000721822F07F420120C7F80803C7F8402554
:1080C000274A002010601068019001984FF480301A
:1080D000C7F80403BFF34F8F3DB11D4820BFD0F850
:1080E0000071D0F804513D43F8D04FF48030C3F80C
:1080F00008030020106012680392039A194A106066
:1081000012680292029A0122C3F80423D3F80435BC
:108110009B1B23F07F4088420D4B4FF4003228BF59
:108120000846C3F8802108B1FFF786FAA3685BB15F
:10813000EFF3108372B6064A2168116061685160DE
:108140000022A26003B962B605B0F0BD345D002024
:1081500000E100E0FC06FFBD00100140FDFFFF0054
:1081600040110140001101400748006880F3088871
:1081700062B661B6BFF34F8FBFF36F8F4FF0E00071
:1081800080F3118800DF00BF00600200064B196811
:108190000868B0E8F04F80F30988BFF36F8F4FF0A5
:1081A000000080F311887047983A0020EFF30980AF
:1081B000BFF36F8F144B1A681EF0100F08BF20ED2D
:1081C000108A20E9F04F10604DF8043D4FF0400058
:1081D00080F31188BFF34F8FBFF36F8FFFF756FB0C
:1081E0004FF0000080F3118808BC19680868B0E8F7
:1081F000F04F1EF0100F08BFB0EC108A80F3098812
:10820000BFF36F8F704700BF983A00200A490B4AAE
:108210000B4B9B1A03DD043BC858D050FBDC0948CC
:1082200009494FF0AD32026004300439FBD100F04F
:1082300071F8FEF705F8000074E102000034002038
:108240001037002000F8032000080000FEE7FEE7DA
:10825000FEE7FEE7FEE7FEE7FEE7FEE7FEE7FEE7F6
:1082600008B5FEF719FB074C074DFEF7BDFB0020D4
:1082700000F0D4F9002CF8D0002DF6D0AFF3008038
:10828000F3E700BF000000000000000007B501F0A8
:10829000E5F902F0F5FC104B104C13B1AFF3008080
:1082A00020600F4B0193012322880E4900930E4852
:1082B0000023FFF74EF901F0A3F9FFF777F9BFF3B9
:1082C0004F8F0A490A4BCA6802F4E0621343CB603D
:1082D000BFF34F8F00BFFDE7000000000C3400200B
:1082E0002C3E002048DC02006182020000ED00E02C
:1082F0000400FA05054B1B68082B01BF044B1868E6
:10830000B0FA80F0400918BF00207047300100101B
:108310003401001008B54FF080430022C3F80C214F
:10832000C3F81021C3F838254FF0805203F54043BD
:10833000D2F80414C3F82015D2F80814C3F8241591
:10834000D2F80C14C3F82815D2F81014C3F82C1561
:10835000D2F81414C3F83015D2F81814C3F8341531
:10836000D2F81C14C3F84015D2F82014C3F84415F1
:10837000D2F82414C3F84815D2F82814C3F84C15C1
:10838000D2F82C14C3F85015D2F83014C3F8541591
:10839000D2F83414C3F86015D2F83814C3F8641551
:1083A000D2F83C14C3F86815D2F84014C3F86C1521
:1083B000D2F84424C3F87025FFF79CFF10B11B4B83
:1083C0001B4A1A60FFF796FF18B11A4BFB22C3F83D
:1083D0001825FFF78FFF48B11749184B0A681B682B
:1083E00022F00F0203F00F0313430B60FFF782FF2D
:1083F00018B1134B4FF400721A604FF08043D3F85A
:108400000024D20744BF6FF00102C3F800240D4AD4
:10841000D2F8883043F47003C2F88830BFF34F8F2E
:10842000BFF36F8F084B094A1A6008BD8C56004095
:108430004881030000F00040E40E004058020010A4
:108440004096024000ED00E0103400200090D00380
:108450007047704708B5024B0BB1AFF3008008BD01
:1084600000000000034B0360034B0B6064231360A8
:10847000704700BF343E0020883E0020034B03605D
:10848000034B0B6064231360704700BF184000204B
:108490006C400020014B01221A707047303E0020D2
:1084A000002000F057B808B5002000F05DF808BDC6
:1084B000002000F093B808B50021084600F078F8D5
:1084C00008BD70B50E46154614467CB1002000F07C
:1084D00025F858B122463146002000F091F8241AC0
:1084E000064403D0002000F099F8EEE7281B70BD89
:1084F000002000F093B87047002000F04BB8000057
:10850000044B4FF47A720021C3E90112024A1A6047
:10851000704700BFFC41002058DC0200044A4FF4C1
:10852000567303FB0020007900F00100704700BF84
:108530000C420020064A4FF4567303FB002000F162
:108540000803806808609A889B798B718A807047DD
:108550000C420020034A4FF4567303FB0020008BAB
:10856000704700BF0C42002007B5094A4FF456730C
:1085700003FB00200DF10701103000F00DFA20B1CF
:108580009DF8070003B05DF804FBFF20FAE700BF89
:108590000C42002010B5054C4FF4567303FB00400D
:1085A00092B2103000F01FFA10BD00BF0C42002044
:1085B00007B5094A4FF4567303FB002089B20DF149
:1085C0000702103000F02EFA20B19DF8070003B02A
:1085D0005DF804FBFF20FAE70C42002013B502AC63
:1085E000064A04F8011D4FF4567303FB0020214690
:1085F0000122243000F05FFA02B010BD0C420020CE
:1086000010B5054C4FF4567303FB004092B2243072
:1086100000F051FA10BD00BF0C4200202DE9F041DE
:10862000154F4FF4567444433E190020B17800F0C2
:1086300045FE804610B10020BDE8F08104F5467586
:108640003D4404F1240040222946384400F0CBF98F
:10865000034608B90120EFE73279D207EBD52A4665
:10866000B178404600F0CAFD0028F3D1034B1B68E7
:10867000DB07E0D500BEDFE70C420020F0ED00E0B4
:1086800037B5194C4FF456720021204603F08AF991
:10869000FF2363714FF4E1330125A3600823A37323
:1086A0004FF480722B4604F13801009504F110005C
:1086B00000F057F904F50E71284601F021FA002365
:1086C000206200934FF480722B4604F59C7104F1F4
:1086D000240000F046F904F52271284601F010FA52
:1086E000606303B030BD00BF0C42002010B5074CE2
:1086F000002304F110002360237100F0F3F904F16A
:108700002400BDE8104000F0EDB900BF0C4200208D
:10871000F7B58B79022B064615465CD1CB79002B39
:108720005BD0073BDBB2F72B57D92F4FBB78002B21
:1087300057D18B783B700C7809230C4413806378F5
:10874000242B0DD0052B1AD12146304600F024FDF4
:1087500068B9264B1B68D90700D500BE202027E04A
:1087600023782A8813442B8023781C44E7E7A378D6
:108770007B7023782A8813442B8023781C446378E9
:10878000042B1AD163790A2B17D123782A88134432
:108790002B802178164B009302220133214430466E
:1087A00000F0C0FB30B1114B1B68DA0700D500BEEA
:1087B00003B0F0BD2B880E332B8040230D4AF9788F
:1087C000304600F01BFD50B9084B1B68DB0700D595
:1087D00000BE2120ECE71520EAE71620E8E700209C
:1087E000E6E700231B70FFDE0C420020F0ED00E006
:1087F0000E420020E444002038B50C46097801F010
:108800006003202B054648D16378A3F12002012A9A
:1088100027D8E388A3B921780023C1F3C0111A46F1
:1088200081F00101284600F099FC6378202B05D1E6
:108830001B4B1BB11B490020AFF3008000200FE051
:10884000072B28BF0723C909164A00F087FC164BDF
:108850004FF0FF31186801F04DFA0028DBD10B20F2
:1088600038BD222B15D10023C1F3C0111A4681F067
:10887000010100F073FC0D4B618819710C4B002B4A
:10888000DCD0C1F34002002001F0010102F050FAF7
:10889000D4E7002100F0F6FCD0E71E20E0E700BF9F
:1088A0000000000014420020785C00200C420020F0
:1088B00031AD02002DE9F0471C4CE2788A42804637
:1088C00002D00020BDE8F0876779DFF870A003F5DB
:1088D00036764FF4367504F11009B54216D1144BB3
:1088E0002BB1238B9BB213B10020AFF30080402348
:1088F000104AE178404600F081FC0028E1D10E4B9F
:108900001B68DB0700D500BE2120DBE76119484664
:1089100000F09FF8BAF1000F06D0635DBB4203D1AF
:1089200039460020AFF300800135D6E70C42002025
:1089300000000000E4440020F0ED00E00000000032
:10894000006920B100231A46194601F059B8704752
:10895000006908B518B14FF0FF3101F0CBF90120E3
:1089600008BD2DE9F0410446884617461E46FFF72C
:10897000EFFF054668B19DF81830A37300232381EB
:10898000C4F800806381A780E680A3812046FFF7BA
:10899000D7FF2846BDE8F08103899BB270B5044635
:1089A0000E4613B90025284670BDFFF7D1FF0546D6
:1089B0000028F7D0E2882368A189304602FB013104
:1089C00002F0CCFFA389A1885A1C92FBF1F301FBB2
:1089D00013239BB2A3812389013B9BB223812046B1
:1089E000FFF7AEFFDFE72DE9F0410489A4B20546A9
:1089F0008846164684B103899A4288BF06894FF09B
:108A0000000788BFB6B2BCB2A64205D94146284687
:108A1000FFF7C2FF013710B92046BDE8F081EB88AF
:108A20009844F0E738B5034610461A8991420ED2B1
:108A30009C899D88DA881B68214491FBF5F405FB2D
:108A4000141102FB013102F089FF012038BD002022
:108A5000FCE7038982889A4270B504460E4604D129
:108A6000837B13B90025284670BD2046FFF770FFB1
:108A700005460028F6D0E28823686089314602FB6B
:108A8000003002F06BFF6389A1885A1C92FBF1F35E
:108A900001FB13239BB263812389994215BF23896C
:108AA000638901339BB216BF9BB2A3812381204609
:108AB000FFF746FFD7E72DE9F04107460E4614467B
:108AC00052B1904600254545ACB205D031463846F6
:108AD000FFF7BFFF013510B92046BDE8F081FB88E4
:108AE0001E44F0E738B50446FFF732FF054630B1C3
:108AF0000023238120466381A381FFF721FF2846BD
:108B000038BD000038B50C4D04462846002300F857
:108B1000013B1022FF2102F045FF1022FF2105F149
:108B2000110002F03FFF2046FFF7E0FD2046BDE8C0
:108B3000384001F02FBA00BF64450020C1F10101A7
:108B400000231A46C9B200F009BB08B513463AB172
:108B500000231A4600F0FBFF003018BF012008BDBB
:108B60004FF0FF3200F04CFFF6E700002DE9874898
:108B70004FF0000AA54CD146A54DA4492868C4F879
:108B800008904FF0FF32C4E9009901F039F863789A
:108B9000062B40F0F0802179257811F07F0640F017
:108BA000B9806279062A43D1E3881A0A022A25D0BD
:108BB000032A28D0012A36D1964B1B68196869B35D
:108BC000122366899E4228BF1E46002E2BD0B6F582
:108BD000807FD1D83246904802F0C0FE21798E4A7B
:108BE0003346C909284600F0B9FA8C4B4FF0FF31E3
:108BF000186801F07FF80028BED03AE0854B1B686A
:108C000059684B88DDE7864A9189DBB299420AD9D7
:108C1000926852F8231031B10B78D2E7814B1B6870
:108C2000D90700D500BE0021284600F02BFBA3E7A2
:108C3000082A05D17C4B784A1B7813700123D0E7B2
:108C4000052A04D1A179284600F086FA94E7092A7A
:108C5000E9D1A679744F3146284600F07EFA6D4B73
:108C60003E701B685B6853B96E4B1B68DA0700D512
:108C700000BE21792846C909FFF760FF7CE75A88C2
:108C800003F1090603EB020B5E4502D3AFF300804C
:108C9000EFE773780B2B02D133781E44F4E7042BF3
:108CA000E2D17379022B04D0082BDDD14FF00108FB
:108CB00001E04FF00008B3783B445A78FF2AD3D143
:108CC0005A4983F801801C2303FB081302AA9B68FE
:108CD00022F802AD3146284698470028C4D1BDF895
:108CE00006100829C0D933465A78052A0AD193F8C4
:108CF00002C04FEADC1207EBC2020CF07F0C6244A8
:108D000082F811801A78104480B281421344EBD863
:108D10000E44B9E701F01F0101290FD1227A424B1D
:108D200013445B78012B3FF67EAF404A1C2101FBC8
:108D300003232846DB683E4998471DE7022E7FF44F
:108D400072AF627942B9217A284600F083FA324A3A
:108D500021791080334644E7012A04D1217A28463C
:108D600000F0A0FA85E7032A7FF45DAF217A284658
:108D700000F088FA7DE7072B15D121792A4BC80925
:108D800001F07F0203EBC00313445B7C012B3FF631
:108D9000F3AE264A1C2000FB032362791D6920786C
:108DA000A368A847E8E6012B0CD12078FFF7AAFEBC
:108DB0000021286800F0BAFD184B0021186800F067
:108DC000B5FDD9E6022B0ED12078FFF79BFE0021DE
:108DD000286800F0ABFD114B0021186800F0A6FDDB
:108DE000AFF30080C8E6032B3FF4C6AE082B06D1D4
:108DF0006368002B3FF4C0AEA0689847BCE6094BFF
:108E00001B68DB077FF5B8AE00BEB5E6F44800206E
:108E100088450020D0340020785B0020785C00205A
:108E2000D4340020F0ED00E06445002078DC02003E
:108E3000F848002030B5002085B000F08BF9194AC1
:108E4000194D51881346002433F8080B00945268DA
:108E500000F0A2FD286000B3032300932246134BC9
:108E60002146012000F098FD114B18602B68B3B12A
:108E7000104800F11003C28802938368019383882D
:108E80000093C16800682346FEF748FBFFF7F8FB34
:108E900001F078F8204605B030BD0E20FBE70F202A
:108EA000F9E700BF14340020884500204C4600201C
:108EB000785C00206C34002010B54378013B0446F8
:108EC0000A46062B1CD8DFE803F00404041B1B042D
:108ED0000B00114B0146BDE810401868FFF735BE86
:108EE000017999B9836823B10C4B18684AB100F035
:108EF0005DFE637923B10A4B1B68DB0700D500BE1A
:108F000010BD1346114600F07BFDF2E7024B01460F
:108F10001868FFF71AFEECE788450020785C00200F
:108F2000F0ED00E02DE9F843089D07460C46904619
:108F3000994602266378052B04D1E17801F00301FC
:108F4000414508D0104B1B68DA0700D500BE1C2035
:108F500018E00126EEE72146384600F01DF930B949
:108F6000094B1B68DB0700D500BE20200AE0A17872
:108F7000CB0914BF297089F800102178012E0C4408
:108F8000E7D10020BDE8F883F0ED00E01FB5002335
:108F9000019308238DF80530044BCDE9020101A9A6
:108FA0001868FFF7D2FD05B05DF804FB8845002086
:108FB000024B1B68DB0700D500BE7047F0ED00E0F8
:108FC0000D4B93F8B420014662B10C4A5268C2F3CB
:108FD00008021AB101220A48FFF7D8BF93F8B4205B
:108FE000002AFBD1012283F8B4200A60BFF36F8FFF
:108FF000BFF34F8F704700BF7C5C002000ED00E0A6
:10900000C18F020038B5134D134BEA88AC88297A1A
:10901000A41AA4B2402C28BF40242A6889B9C3F8F6
:1090200000270122C3F80447DA64BFF36F8FBFF350
:109030004F8F2B6823442B60EB881C44A4B2EC8038
:1090400038BDC3F800260548C3F80446FFF7B8FF4B
:10905000EFE700BF7C5C002000700240047002401B
:1090600038B5104A00F59473451E52F823400E4B54
:10907000182101FB0535142303FB0023E968C3F81D
:109080000017E4B2C3F80447084B03EB8000FFF776
:1090900097FFEB682344EB606B8A1C44A4B26C829C
:1090A00038BD00BF007002407C5C00202870024088
:1090B000114B411E182202FB013110B4CA8B8B8B5D
:1090C0008C699B1A91F820209BB2934228BF1346CB
:1090D0001422424302F1804202F51C32C2F80046DB
:1090E000C2F8043623448B61044B5DF8044B03EB58
:1090F0008000FFF765BF00BF7C5C00200470024069
:109100001FB50023CDE90133039107238DF8080033
:10911000012101A88DF80530FFF7CEFE05B05DF8FE
:1091200004FB000000221146930003F1804303F585
:109130001C330132082A59609962F5D1034B044867
:109140005962B8229964002102F02CBC00700240E0
:109150007C5C0020012070477047704738B51D4681
:109160000B4C43B1A3800023E38022602172FFF700
:1091700049FF012038BD0748FFF722FF94F8B430BB
:1091800013B9FFF715FFF4E784F8B450F1E700BF17
:109190007C5C00205070024010B58878097900F09E
:1091A0007F035A1E18245443C0090C2202FB0044BA
:1091B000104A22441175012202FA03F40E4970B9D3
:1091C0000C339A40C1F80423D1F814352343C1F875
:1091D0001435BFF36F8FBFF34F8F012010BD0233E3
:1091E0009A40C1F80423D1F810352343C1F8103553
:1091F000EFE700BF7C5C00200070024001F07F00C0
:1092000070B5441E18266643C909104D0C2404FB92
:1092100001642C4423820023E260638291B93544C7
:109220006B7D03F0FF021BB1FFF71AFF012070BD39
:1092300000F59470064B43F82020BFF36F8FBFF307
:109240004F8FF3E7FFF734FFF0E700BF7C5C0020AF
:109250000070024091B1CA0901F07F03084A0BBFB8
:1092600003F5887303F5847302EB830352F823003C
:1092700008BF5868003018BF012070470846704783
:1092800000700240064B31B901225A65BFF36F8F5F
:10929000BFF34F8F704741F48071C3F81815F5E79D
:1092A0000070024031B1044BC3F81815BFF36F8F43
:1092B000BFF34F8F704700BF0070024089B101F0CB
:1092C0007F00431E18205843C9090C2303FB0101EA
:1092D000054B1944488A098A814294BF0020012025
:1092E00070470846704700BF7C5C00202DE9F043C2
:1092F000984B994ED3F80003002385B01C460125F6
:109300001F4605FA03F101420CD09A199200D2F8D7
:1093100000C0BCF1000F05D00C431760BFF36F8F86
:10932000BFF34F8F0133192BEBD1E6070BD5FFF7B6
:10933000F9FE0023012101A8CDE9013303938DF843
:109340000510FFF7B9FD854B23403BB1844B93F8E3
:10935000B420002A40F0D780FFF72AFE25022CD542
:109360007C4B4FF0000ED3F880C4D3F88474D3F84C
:109370008864D3F88C54D3F89004D3F89414D3F8B9
:109380009824D3F89C34CDF804E08DF80C004FF00D
:10939000060E8DF80D1001A801218DF805E08DF85D
:1093A00008C08DF809708DF80A608DF80B508DF8A3
:1093B0000E208DF80F30FFF77FFD600507D5684B55
:1093C0001A7A002A40F0A3806648FFF7F9FDE1040D
:1093D00007D5634BDA889988914240F2A480FFF761
:1093E00011FE5C4F5E4E0D250122AA40A5F10C0333
:1093F0002242D8B227D0142101FB0373A5F10D023C
:10940000D3F80817182303FB026E03FB0563A3F5CB
:1094100092784FF0000C8EF815C098F80080C9B211
:109420008845A3F5947340F08380BEF81210B3F81A
:1094300000E08E457CD905F58E7347F823C0BFF355
:109440006F8FBFF34F8F0135142DCDD1E2014AD577
:10945000404ED6F86C74C6F86C74BFF36F8FBFF3D0
:109460004F8F0125DFF8F880A94609FA05F33B4242
:10947000E8B216D018216B1E142201FB038302FBF5
:109480000562D2F80426B3F81EC0624492B2DA83B1
:1094900001FB0582B3F81EC09288624551D9FFF7DF
:1094A00007FE0135082DE0D1DFF8B4801125012633
:1094B0004FF0180906FA05F3A5F110003B42C0B2BF
:1094C0000ED0A5F1110309FB05F209FB0383A2F5F8
:1094D000C472598A32F808208A4238D9FFF7C0FD91
:1094E0000135182DE6D1A3020AD50023CDE90133B9
:1094F00003930121032301A88DF80530FFF7DCFC5D
:1095000005B0BDE8F083002283F8B42026E7DA88AE
:109510009988914202D9FFF775FD58E7D988002054
:10952000FFF7EEFD53E7D9880020FFF7E9FD58E784
:10953000182101FB0262518A1980518AFFF7E0FD70
:1095400081E7D98B40F08000FFF7DAFDA9E75E756F
:10955000C6E700BF00700240409C0010FCFB1F00EB
:109560007C5C00202870024010B50446FEF77CFAAF
:109570000128204603D1BDE8104002F0D5B9BDE86E
:10958000104000F03AB9000030B51C4D85B04FF0E6
:10959000FF3203A9286800F033FB0028F7D00398B6
:1095A000037A4468052B05D8DFE803F0030D101497
:1095B000191FA047039B186808B1FFF7D5FF039850
:1095C000FFF7D2FFE3E7C068A047F3E7D0E9030164
:1095D000A047EFE7D0E90412C068A047EAE7D0E966
:1095E0000523D0E90301A047E4E7C3690093D0E96C
:1095F0000523D0E90301A047DCE700BF00490020B4
:109600001FB500220421142000F0DCF9074B0849A3
:10961000186003AB0193022300934FF48062002390
:109620000448FDF796FF05B05DF804FB00490020F3
:10963000E8DD020089950200BFF34F8F0549064B14
:10964000CA6802F4E0621343CB60BFF34F8F00BFE0
:10965000FDE700BF00ED00E00400FA05124BD3F86F
:109660004025124B1A604FF080430122C3F81825A1
:109670009A600F4B4FF40031C3F8801003F1C043E0
:1096800003F53C534FF48031C3F84813C3F8081373
:109690005A609A604FF0A0424FF0FF33C2F808358D
:1096A000C2F80838704700BF00A0004004490020FD
:1096B00000E100E008B54FF080434E22C3F81C25BE
:1096C000FFF7BAFF2F2814D8104B53F820301F2B68
:1096D00086BF03F01F030E4A4FF0A042032908D8AB
:1096E000DFE801F00210080C03F5E073002142F8F6
:1096F0002310704703F5E0730C21F8E703F5E073DE
:109700000421F4E703F5E0730321F0E738DE0200FB
:10971000000300502F2813D80A4B53F820201F2A8B
:1097200088BF02F01F024FF001038CBF06484FF0C4
:10973000A040934011B9C0F80C357047C0F8083507
:10974000704700BF38DE0200000300500021FFF721
:10975000E1BF0121FFF7DEBF00F108034FF0FF3248
:109760004360C0E9022303610023036070470023C4
:109770000361704743684B609A688A609A685160D9
:109780009960036808610133036070470A68531CDD
:1097900030B50AD103695A684A6091608B6059609C
:1097A000036808610133036030BD00F108035C68A1
:1097B00025689542EFD82346F9E7D0E901120369FD
:1097C0008A60826851605968814208BF5A600022ED
:1097D00002611A68013A1A601868704710B50446A9
:1097E000FDF71CFF204602F097F80446FDF7A2FFA4
:1097F0000CB9FEF72EFE204610BD10B5044640B150
:10980000FDF70CFF204602F08FF8BDE81040FDF791
:1098100091BF10BD10B50446FEF7B8FBA46BFEF770
:10982000BFFBB4FA84F0400910BD70B51546026C58
:10983000866B044642B905689DB94068FEF766F933
:1098400065600136A66370BD6DB9806802F086F868
:10985000A368226C13446268A360934201D3236817
:10986000A3600020EDE7C06802F078F8236CE2689E
:1098700021685B421A448A42E2603EBF62689B18DC
:10988000E360022DEDD10EB1013EEAE73046D8E7A4
:10989000034610B41A6C084662B1D9685C6811447A
:1098A000A142D96024BF1968D960D9685DF8044B1A
:1098B00002F054B85DF8044B704770B50446FEF7EB
:1098C00065FB94F8455004F124066DB2002D14DCBC
:1098D000FF2384F84530FEF763FBFEF757FB94F84F
:1098E000445004F110066DB2002D12DCFF2384F801
:1098F0004430BDE87040FEF753BB636A002BE7D0ED
:109900003046FEF725F808B1FEF78EF8013D6DB23E
:10991000DCE72369002BE9D03046FEF719F808B1DF
:10992000FEF782F8013D6DB2DEE7000038B504466F
:109930000D46FEF72BFBD4E90F302268A2604343AB
:10994000D1181B1A13446160E3600021FF23A16357
:1099500084F8443084F845309DB923696BB104F133
:109960001000FDF7F5FF40B10A4B4FF080525A60EE
:1099700040BFBFF34F8FBFF36F8FFEF711FB012086
:1099800038BD04F11000FFF7E7FE04F12400FFF7F3
:10999000E3FEF2E700ED00E010B51C4683B10123C1
:1099A000002908BF2246C4E90F0184F84630194651
:1099B00022602046FFF7BAFF9DF8083084F84C304B
:1099C000204610BDF8B50646484350300D461746B0
:1099D000FFF704FF044660B1002380F8463055B914
:1099E0002060C4E90F6501212046FFF79FFF84F83E
:1099F0004C702046F8BD00F150030360F1E7000011
:109A00002DE9FF470026DFF8F490019204468A46CC
:109A10001F46B046FEF7BAFAA26BE36B9A4201D337
:109A2000022F1AD13A4651462046FFF7FEFE636ADE
:109A30001BB104F12400FDF78BFF40B12F4B4FF019
:109A400080525A6040BFBFF34F8FBFF36F8FFEF756
:109A5000A7FA012004B0BDE8F087019D1DB9FEF70B
:109A60009FFA0020F6E716B902A8FDF7A9FFFEF756
:109A700097FAFDF7D3FDFEF789FA94F84430FF2BEF
:109A800008BF84F8448094F84530FF2B08BF84F861
:109A90004580FEF785FA01A902A8FDF79DFF30BBBE
:109AA000FEF774FAA26BE36B9A420ED1FEF778FAD6
:109AB000019904F11000FDF727FF2046FFF7FDFE96
:109AC000FDF738FE48B10126A4E7FEF769FA204603
:109AD000FFF7F3FEFDF72EFEF5E74FF08053C9F8D0
:109AE000043040BFBFF34F8FBFF36F8FEBE72046CB
:109AF000FFF7E3FEFDF71EFEB3E700BF00ED00E059
:109B000013B5002200900B4601201146FFF744FFD9
:109B1000044638B10023C0E90033C3601A46194631
:109B2000FFF76EFF204602B010BD10B502460021BF
:109B30000120FFF747FF044638B10023C0E9003396
:109B4000C3601A461946FFF75BFF204610BDF8B503
:109B500005461746EFF31186402282F31188806B89
:109B6000EA6B904201D3022B1ED195F845401A466C
:109B700064B22846FFF759FE631C10D16B6A0BB91B
:109B8000012009E005F12400FDF7E2FE0028F7D0EE
:109B9000002FF5D00120386086F31188F8BD01341C
:109BA00064B285F84540EBE70020F5E738B50C4690
:109BB000EFF31185402383F31188826BC36B9342CB
:109BC0001BD990F8453001325BB282635A1C0FD129
:109BD000436A0BB9012008E02430FDF7B9FE0028E4
:109BE000F8D0002CF6D00120206085F3118838BD14
:109BF00001335BB280F84530ECE70020F5E7000068
:109C00002DE9F04385B00026DFF8E4900192044688
:109C100088463746FEF7BAF9A56BDDB141462046C6
:109C2000013DFFF735FEA56323696BB104F1100018
:109C3000FDF78EFE40B12E4B4FF080525A6040BF70
:109C4000BFF34F8FBFF36F8FFEF7AAF9012005B066
:109C5000BDE8F083019D1DB9FEF7A2F90020F6E7EB
:109C600016B902A8FDF7ACFEFEF79AF9FDF7D6FC8F
:109C7000FEF78CF994F84430FF2B08BF84F8447049
:109C800094F84530FF2B08BF84F84570FEF788F93B
:109C900001A902A8FDF7A0FEF8B92046FFF7BAFD1A
:109CA000A8B1019904F12400FDF72EFE2046FFF72C
:109CB00004FEFDF73FFD40B94FF08053C9F8043072
:109CC00040BFBFF34F8FBFF36F8F0126A2E720463F
:109CD000FFF7F3FDFDF72EFDF7E72046FFF7EDFD5B
:109CE000FDF728FD2046FFF795FD0028EDD0B5E7EC
:109CF00000ED00E02DE9F04385B00025DFF81C9170
:109D0000019104462F462E46FEF740F9A36BEBB1B6
:109D1000013BA363236813B9FDF756FF6060236915
:109D20006BB104F11000FDF713FE40B13B4B4FF057
:109D300080525A6040BFBFF34F8FBFF36F8FFEF763
:109D40002FF90125284605B0BDE8F083DDF8048031
:109D5000B8F1000F03D1FEF723F90025F2E717B998
:109D600002A8FDF72DFEFEF71BF9FDF757FCFEF7E5
:109D70000DF994F84430FF2B08BF84F8446094F840
:109D80004530FF2B08BF84F84560FEF709F901A9AB
:109D900002A8FDF721FE48BB2046FFF73BFDF8B1C6
:109DA00023683BB9FEF7F2F86068FDF76DFE0546E3
:109DB000FEF7F6F8019904F12400FDF7A5FD204611
:109DC000FFF77BFDFDF7B6FC40B94FF08053C9F8B3
:109DD000043040BFBFF34F8FBFF36F8F012793E76E
:109DE0002046FFF76AFDFDF7A5FCF7E72046FFF7E1
:109DF00064FDFDF79FFC2046FFF70CFD0028EDD029
:109E0000002D9FD0FEF7C2F8616A19B1236B196863
:109E1000C1F105016068FDF7A3FE9CE700ED00E0DD
:109E2000054B1A6812B19A682AB9012243F8321018
:109E300003EBC20358607047405D002070B50446D4
:109E40000D461646FEF7A2F894F84430FF2B04BFE7
:109E5000002384F8443094F84530FF2B04BF0023DE
:109E600084F84530FEF79CF8A36B2BB9324629469F
:109E700004F12400FDF758FD2046BDE87040FFF7CF
:109E80001CBD00000B4908B58A6B8B6891F82F1038
:109E90009B1AB3F5007F28BF4FF400739BB2064AAC
:109EA000FFF7ACF920B9054B1B68DB0700D500BEF6
:109EB00008BD00BF084B002008490020F0ED00E07D
:109EC000F0B5274CE28AA66BA368D4F8111052BAF9
:109ED00092B2B3FBF2F29B1BB3F5007F87B028BFB1
:109EE0004FF4007392B209BAB6FBF2F7009339440B
:109EF0001C4B054602FB1762607B00F037FB031E1C
:109F000094F82E1011DAA368A26B9B1AA3620123A6
:109F100084F82C3042F20503A3872846002384F8F6
:109F20003E30FFF7AFF907B0F0BD0CD1CDE90333F8
:109F300007228DF8101003A819468DF80D200593FF
:109F4000FEF7BAFFEFE79BB2064A2846FFF756F93D
:109F50000028E8D1044B1B68DB07E4D500BEE2E72C
:109F6000084B002008490020F0ED00E0044880F88C
:109F70003C1080F83D2080F83E300120704700BF43
:109F8000084B002040220021014801F00BBD00BF1A
:109F9000084B002040220021014801F003BD00BF12
:109FA000084B00202DE9F3418B79062B07460D461F
:109FB00090462ED1CB79502B2BD1174E097806F134
:109FC0002E030093022206F12F032944FEF7AAFF75
:109FD000044640B1114B1B68DA0700D500BE20468D
:109FE00002B0BDE8F081AB7886F82D301723A8F8D1
:109FF000003032461F2396F82F103846FFF7FEF840
:10A000000028ECD1054B1B68DB0700D500BE2124DE
:10A01000E5E71824E3E700BF084B0020F0ED00E07F
:10A0200070B50D46097801F06003202B064606D076
:10A030001A4B1B68DB0700D500BE1E200BE06B78B7
:10A04000FF2B09D1C1F3C01100231A4681F0010191
:10A05000FFF784F8002070BDFE2B4FF0000416D1EE
:10A060000F4A147029780123C909FFF777F80D4BBF
:10A070004FF0FF311868FFF73DFE60B12978C1F35A
:10A08000C0112346224681F001013046E0E7214617
:10A09000FFF7F8F8DEE70B20DDE700BFF0ED00E0AA
:10A0A000785B0020785C0020F0B5C37B1A2B8BB066
:10A0B0000C4600F0948007D8032B00F09480122BFC
:10A0C00059D04FF0FF302AE0232B2AD0252BF8D18E
:10A0D00000F0A8FA074600F0A5FA064600F0A2FA3A
:10A0E000054600F09FFA760A430A7F0A013B013ECB
:10A0F0006D0A013F1B0E3602013D43EA076306F479
:10A100007F062D0A334305F47F452B4301934FF41B
:10A110000033029301AB03CB2060616008200BB0D9
:10A12000F0BD0023CDE90133ADF80C3000F07AFA30
:10A13000054600F077FA064600F074FA6B0A450C03
:10A1400005F47F45760845EA036506F47F0600F0CE
:10A1500069FA08238DF80730354302238DF80C3057
:10A16000ADF80E30029501AB03CB20601868A060FB
:10A1700061600C20D3E7334A0023CDE90133106836
:10A18000314B5168099303AB03C3304B05AD03F169
:10A190001006186859682A4603C20833B3421546A8
:10A1A000F7D19DF8053043F080038DF805309DF818
:10A1B0000730022262F303038DF807308DF8062082
:10A1C00001AB09AD1A4603CAAA422060616013467A
:10A1D00004F10804F6D11068206024209FE70323CF
:10A1E0000B6004209BE71222002101A801F0DAFB9A
:10A1F000174BF02293F83C508DF804204FF00002EA
:10A2000065F3030293F83D0093F83E108DF80620A5
:10A210000A228DF80B208DF810008DF8111001AA7C
:10A2200005AE154603CDB542206061602A4604F1B3
:10A230000804F6D12A88228000229A8783F83E20DB
:10A2400012206CE7F1DD0200312E3000FADD020051
:10A25000084B00202DE9F041AF4C94F8307086B0E7
:10A2600006468E461D46D7B1012F00F09F8094F818
:10A270003030022B17D194F82E103046FEF7EAFF4B
:10A28000002800F00C8194F82F3007220024CDE93B
:10A29000034405948DF80D208DF81030ECE094F80F
:10A2A0002F308B4203D0002006B0BDE8F0812AB9E0
:10A2B0001F2D03D12568994B9D4206D0984B1B68F2
:10A2C000D80700D500BE0120EEE7964B23626368F5
:10A2D000A568C4E90932E37B0127282B84F8307094
:10A2E000C4E90D5203D13046FFF7EAFDBFE72A2B40
:10A2F00003D13046FFF7C6FDB9E7B5B92B4604F1E7
:10A300000F01607B00F01CF90223002884F8303034
:10A31000B8BF42F205036563BDBF84F82C70A38704
:10A3200084F83E5084F82C50A1E794F90C30002BAF
:10A330000CDB7D4AABB2FEF761FF002897D1784B6A
:10A340001B68D90700D500BE2120ADE74FF400728D
:10A3500075492046FFF7A8FE002805DAA38E724A49
:10A360007249607B00F0ECF800284FF000030BDD31
:10A3700084F82C30A368606398429FD883B26A4AFD
:10A3800094F82E103046D6E7012284F82C200222C1
:10A3900084F8302042F20502A28784F83E3094F817
:10A3A0002E1063633046FEF76DFF60E794F90C30C2
:10A3B000002B17DBE37B607B2A2B1DD05A4AA38E30
:10A3C00004F10F0100F0BCF800284FF00003BFBFFC
:10A3D00042F2050284F82C70A28784F83E30A8BFB0
:10A3E00084F82C30A36B1D44636BA5639D4248D356
:10A3F000022384F830303AE7E38AD4F81110D4F815
:10A4000038E0DFF824815BBA9AB209BAA368B3FBDB
:10A41000F2F39AB20095BEFBF2FC4346614402FBA4
:10A420001CE200F0A9F8011E0FDAA368A26B84F801
:10A430002C709B1AA362022384F8303042F2050389
:10A44000A387002384F83E3011E7A942CAD26D1ACF
:10A4500039B1A36B2A460B4440464144A36301F043
:10A4600088FA94F82F30059500240722CDE903449B
:10A470008DF80D208DF81030214603A8FEF71CFD45
:10A4800011E7E37B282B3FF42EAF2A2B3FF431AFAB
:10A49000234B1B68DA077FF5EAAE00BEE7E694F8C7
:10A4A0002F103046FEF7D6FE00287FF4ECAEE37B9B
:10A4B000282B16D11E4B13B1607BAFF30080002315
:10A4C00084F830301B4A94F82E100D233046FEF7E6
:10A4D00095FEB8B9124B1B68DB077FF5E4AE00BEF2
:10A4E000E2E62A2B06D1144B002BE8D0607B00F06B
:10A4F00059F8E4E7114B002BE1D00C49607BAFF336
:10A500000080DCE71F23044A94F82F103046FEF742
:10A5100075FE0028DED0C6E6084B002055534243A6
:10A52000F0ED00E05553425308490020174B00203E
:10A5300000000000284B0020A5A50200000000003C
:10A5400010B50A781E2A1C4604D801239340064AF7
:10A55000134206D1002320220521FFF707FD2046E4
:10A5600010BD0024FBE700BF0100004802EB4121C1
:10A570001846009A00F082B870B502EB41200C46F4
:10A58000049A19461D4600F055F8054B064623B1BE
:10A59000049A29462046AFF30080304670BD00BFC4
:10A5A0000000000000F07EB800207047074B1B68D9
:10A5B00010B5144613B90024204610BD0A462146A2
:10A5C00000F09AFA024B9842F5D1F5E7485B00207B
:10A5D0000000AD0B10B51446074A12680B4612B9BD
:10A5E0000024204610BD02462146184600F06EFAAF
:10A5F000024B9842F4D1F4E7485B00200000AD0B19
:10A6000008B5064B0146186830B1002000F08AFA00
:10A61000034BC31A5842584108BD00BF485B002095
:10A620000000AD0B024B186800B10068704700BF16
:10A63000485B00200E4B2DE9F0411C6806460F4692
:10A64000904694B10B4D4FF0FF312868FFF752FB55
:10A6500043463A463146084800F0A0FA0023044633
:10A660001A4619462868FFF7CBF92046BDE8F08165
:10A67000485B00204C5B002014350020074B1B6812
:10A6800010B514463BB113460A460146044800F093
:10A69000B7FA204610BD1C46FBE700BF485B002010
:10A6A000143500200A4B1B6810B583B1094C4FF0DC
:10A6B000FF312068FFF71EFB074800F04DFA00232A
:10A6C00020681A461946BDE81040FFF799B910BD39
:10A6D000485B00204C5B00201435002030B5434B14
:10A6E0008DB0DA6C8DF820205A6C8DF821201A6D0F
:10A6F0008DF8222007228DF82E205A6D8DF8232008
:10A700009A6DDB6D8DF825300024042301258DF82A
:10A7100024208DF8263022460223214607A88DF8F2
:10A72000273007948DF828408DF829408DF82A505D
:10A730008DF82B408DF82C408DF82D4000F08CF8D2
:10A740002B4B18689B880190ADF808302246662391
:10A75000214601A88DF804308DF8055000F014F959
:10A7600099232246214601A88DF804308DF8055022
:10A7700000F00AF91F4B4FF4C8502B439847902321
:10A780008DF8043005AA062303A901A88DF8053029
:10A790000394ADF810400594ADF8184000F0F4F8BB
:10A7A000154AD2F83C36D2F83826120EC22A134A7D
:10A7B00004D1DBB2172B04BF114B1360116871B1C8
:10A7C000032201238DF805200631002201A88DF80F
:10A7D00004308DF809308DF8083000F0D5F80120EC
:10A7E000FFF7A3F9074B18600DB030BD38DE02004B
:10A7F0000ADE020020DE020000900240485B0020DA
:10A8000010DE02004C5B00200E4A537910B503F0B5
:10A81000FF01A3B90C4B1960116821B101245471D7
:10A820000A4AC2F8044300F1804000F524300122B6
:10A83000026011B91A68002AFCD0054800E00548FA
:10A8400010BD00BF505B002000910240009002400C
:10A850000000AD0B0B00AD0BF8B5424D2E79002E6C
:10A8600079D190F804E0BEF1FF0F76D090F805C0E2
:10A87000BCF1FF0F71D08779FF2F6ED0C379FF2B0A
:10A880006BD0394CC4F824E5C4F828C5C4F8307539
:10A89000C4F83435037A90F80BC0877AFF2B08BFD1
:10A8A0004FF0FF33C4F83835437AFF2B08BF4FF021
:10A8B000FF33C4F83C350368C4F84035037B9B0183
:10A8C00043EACC033B43477B90F810C0002F14BFF2
:10A8D000802700273B43C4F84435D4F80036877BF3
:10A8E00023F07F4323F0FF033B43C77B43EA4C63E2
:10A8F00090F811C0002F14BF4FF08077002743EA73
:10A900000C733B43C4F8003601236E712960AA60C2
:10A91000C4F8083351B1837C144A5B01DBB282F87E
:10A9200029334FF40073C2F8843153600E49104C40
:10A93000104E012200202A711643C1F8002564251B
:10A9400020600A60236853B94FF42070B047013D7E
:10A95000F8D10948F8BD0948FCE70948FAE7094871
:10A96000F8E700BF505B00200090024000E100E0EB
:10A970000091024030DE02000700AD0B0500AD0B78
:10A980000400AD0B0000AD0B494B5B792DE9F041A4
:10A990001546044603F0FF02002B6ED1454E437866
:10A9A000326011B39A1E072A1FD8DFE802F04B4924
:10A9B000471145434104CA791206887942EA0042A8
:10A9C000487942EA0022087902433B48C0F83C2615
:10A9D000C87800068A7840EA02404A7840EA0220B5
:10A9E0000A781043344AC2F83806334A0121C2F8C3
:10A9F0000813A1781B0243EA013321780B43E17865
:10AA000043EA4133217943EA8133617943EAC1332F
:10AA1000C2F83436294B642743F00108336873BB0E
:10AA20004FF42070C047013FF8D12548BDE8F081C0
:10AA30000022C2E70022C3E70022C4E70020C9E7E2
:10AA40000020CAE70020CBE7080EE871080CA871C7
:10AA5000080A68712971D3F83816931E032B0AD897
:10AA6000DFE803F0080604020B0EEB700B0CAB7072
:10AA70000B0A6B7029701348D8E71348D6E70023F8
:10AA800033600D4B0122C3F80423002DF3D062780C
:10AA9000D3F83C16901F0328DDD801A454F820F009
:10AAA00055AA020051AA02004DAA020049AA0200BA
:10AAB000505B0020009102400090024030DE020016
:10AAC0000700AD0B0000AD0B0B00AD0B00F06043B9
:10AAD000B3F1005F09D1064BC3F81025C3F8140584
:10AAE000C3F818150820FFF78FBE0248704700BF53
:10AAF000009002400A00AD0B00F06043B3F1005F2C
:10AB000009D1064BC3F80425C3F80805C3F80C1592
:10AB10000420FFF779BE0248704700BF0090024052
:10AB20000A00AD0B034BC3F81C15C3F820050C201D
:10AB3000FFF76ABE00900240054A136833B1054B27
:10AB400000205871996810601A681047704700BF5C
:10AB500000910240505B002010B504460069431C80
:10AB600013D0E36893B90D20FEF7F0FD2368206948
:10AB7000984763684FF48052D4E9040198470D2048
:10AB8000FEF7E7FD4FF0FF33236110BD4FF4805215
:10AB9000616998470028E6D0F4E700002DE9F74FF7
:10ABA000DFF858A004460F46904699461E461EB947
:10ABB000484603B0BDE8F08FC7F30B0BCBF58055CB
:10ABC000236907EA0A01B54228BF35468B42019145
:10ABD00009D02046FFF7C0FF01992161A368606991
:10ABE0004FF480529847606941462A46584400F025
:10ABF000B5FEA844761B2F44D9E700BF00F0FFFF45
:10AC00002DE9F04704699946631C074688461646B5
:10AC10002FD0944203D902EB09039C4229D204F5B8
:10AC20008053B34225D9A41B4ABFC4F1000A4FF098
:10AC3000000A0024CAF58050A9EB0405854228BF0C
:10AC4000054624B1224631464046BB68984779699B
:10AC50002A46514408EB040000F080FE6019484584
:10AC60000CD2BB68A9EB000281194044BDE8F04753
:10AC70001847BB684A4631464046F7E7BDE8F087CB
:10AC800008B501210D20FEF71DFD0D20FEF761FD29
:10AC900001210E20FEF716FD0E20FEF75AFDFFF7EC
:10ACA0001DFDBDE8084000F001B8000030B589B0D6
:10ACB00008A8002500F81C5D00F054F808A8184BFF
:10ACC00040F8183D00F076F800F07EF8154B402271
:10ACD00083F827234FF08043D3F83844E20702D5A6
:10ACE000284600F01BF9A30702D5022000F016F950
:10ACF0004FF080530C495A6E1B6E03A801F06EFB97
:10AD00000A4A012303A9194411F8011C22F813105F
:10AD10000133112BF6D100F0DDF909B030BD00BFD1
:10AD20001DAF020000E100E0F8DE0200F034002078
:10AD300007B5084641B96946FDF7FCFB009BB3F532
:10AD4000966F01D1FEF7B6FC03B05DF804FB00F18D
:10AD500080431A68002A1BBF0022012000201A60CD
:10AD6000704700000F4B1A78D2B902784FF080413B
:10AD7000C2F34002C1F88025027802F00102C1F856
:10AD80007825094A1168C90706D4E02182F8001322
:10AD90000121C2F88011116001221A700348704726
:10ADA00003487047505D002000E100E00000AD0B5B
:10ADB0000C00AD0B034B00221A60026802B11A604E
:10ADC000704700BF645B00204FF080434FF4607217
:10ADD000C3F80423704700004FF0804310B5D3F848
:10ADE0000443620707D54FF48470FFF7B0FF10B13A
:10ADF0001E4B1B689847A30608D54FF48A70FFF7CF
:10AE0000A6FF18B11A4B00201B689847600608D5AA
:10AE10004FF48C70FFF79BFF18B1154B01201B6896
:10AE20009847210608D54FF48E70FFF790FF18B1B0
:10AE3000104B00201B689847E20508D54FF490702E
:10AE4000FFF785FF18B10B4B01201B689847A3053E
:10AE50000AD54FF49270FFF77AFF28B1054B022014
:10AE60001B68BDE81040184710BD00BF5C5B0020A8
:10AE7000605B0020645B00200C4B1B78082B12D118
:10AE80000B4B186810F00F000DD104331B6803F052
:10AE9000F003202B08D1074B1B6813F0F00F0CBFF9
:10AEA0000120002070470020704700BFE00F00F035
:10AEB000E40F00F0EC0F00F042DF704743DF704713
:10AEC00044DF704712DF704707B502A8002300F87F
:10AED000013DFFF7F7FF9DF80700003018BF012084
:10AEE00003B05DF804FB07B5FFF7EEFF48B101A81A
:10AEF000FFF7E6FF0198003018BF012003B05DF8AE
:10AF000004FB4FF08043D3F80C0400F00110A0F1D3
:10AF1000011358425841F1E701207047012813B549
:10AF2000024600F0A38058D3022854D1614BD3F8D5
:10AF300000241205FBD54FF40062C3F80024BFF3D0
:10AF40006F8FBFF34F8F5C4B00211960BFF36F8F82
:10AF5000BFF34F8F594A106803F58E2303F2144351
:10AF600000287ED149F27531116018601160FFF739
:10AF700083FF40B11068524B002874D149F27531FB
:10AF80001160186011604C4B40F2E3721A60043398
:10AF900040201860BFF36F8FBFF34F8FA3F60403F9
:10AFA00002F1E072802102F62242C3F81C15C3F8B8
:10AFB0000423444A82F82703C2F8841151601A46D8
:10AFC000FFF791FF0028FBD00123C2F80435BFF33F
:10AFD0006F8FBFF34F8F02B010BD364BD3F80025F3
:10AFE000002AF8D14FF40062C3F80024BFF36F8F3A
:10AFF000BFF34F8FFFF740FF304B40B11868304A26
:10B00000032108BB49F27530186011601860186898
:10B010002D4AC021D0B949F275301860116018600E
:10B02000244B0122C3F80025BFF36F8FBFF34F8F6E
:10B03000FFF759FF0028CED1FFF746FF40B102B01D
:10B04000BDE81040FFF738BF1160E0E71160E7E7A7
:10B050001E4B18601B680193019B4FF080431A60E0
:10B06000B9E7196083E700221A608CE7114BD3F827
:10B0700000150029AFD00021C3F80415BFF36F8F6E
:10B08000BFF34F8F0F488024C0F88440D3F80003EB
:10B09000C3F80803C3F80015BFF36F8FBFF34F8FDA
:10B0A000FFF712FF20B102B0BDE81040FFF706BF66
:10B0B000074BD4E7007002400078024000EC0640E5
:10B0C00014ED064000E100E014EC064000010040F1
:10B0D0000400004010B50B4C237873B9FFF71CFF38
:10B0E00068B1FDF7A7FE28B1074B1B68DB0700D549
:10B0F00000BE10BD01232370FBE70020F9E72520E7
:10B10000F7E700BF685B0020F0ED00E081F0004150
:10B1100002E000BF83F0004330B54FEA41044FEA3C
:10B12000430594EA050F08BF90EA020F1FBF54EAD7
:10B13000000C55EA020C7FEA645C7FEA655C00F073
:10B14000E2804FEA5454D4EB5555B8BF6D420CDD44
:10B150002C4480EA020281EA030382EA000083EAC7
:10B16000010180EA020281EA0303362D88BF30BD67
:10B1700011F0004F4FEA01314FF4801C4CEA1131BD
:10B1800002D0404261EB410113F0004F4FEA03331C
:10B190004CEA133302D0524263EB430394EA050FA7
:10B1A00000F0A780A4F10104D5F1200E0DDB02FA16
:10B1B0000EFC22FA05F2801841F1000103FA0EF2AA
:10B1C000801843FA05F359410EE0A5F120050EF170
:10B1D000200E012A03FA0EFC28BF4CF0020C43FAA1
:10B1E00005F3C01851EBE37101F0004507D54FF0AE
:10B1F000000EDCF1000C7EEB00006EEB0101B1F5FE
:10B20000801F1BD3B1F5001F0CD349085FEA300043
:10B210004FEA3C0C04F101044FEA445212F5800F4E
:10B2200080F09A80BCF1004F08BF5FEA500C50F1EB
:10B23000000041EB045141EA050130BD5FEA4C0CCE
:10B24000404141EB010111F4801FA4F10104E9D157
:10B2500091F0000F04BF01460020B1FA81F308BF4E
:10B260002033A3F10B03B3F120020CDA0C3208DD1A
:10B2700002F1140CC2F10C0201FA0CF021FA02F1F5
:10B280000CE002F11402D8BFC2F1200C01FA02F165
:10B2900020FA0CFCDCBF41EA0C019040E41AA2BF8A
:10B2A00001EB0451294330BD6FEA04041F3C1CDA52
:10B2B0000C340EDC04F11404C4F1200220FA04F072
:10B2C00001FA02F340EA030021FA04F345EA03011C
:10B2D00030BDC4F10C04C4F1200220FA02F001FADE
:10B2E00004F340EA0300294630BD21FA04F0294660
:10B2F00030BD94F0000F83F4801306BF81F48011F9
:10B300000134013D4EE77FEA645C18BF7FEA655C6B
:10B3100029D094EA050F08BF90EA020F05D054EA3D
:10B32000000C04BF1946104630BD91EA030F1EBF42
:10B330000021002030BD5FEA545C05D14000494146
:10B3400028BF41F0004130BD14F580043CBF01F539
:10B35000801130BD01F0004545F0FE4141F470011F
:10B360004FF0000030BD7FEA645C1ABF19461046FA
:10B370007FEA655C1CBF0B46024650EA013406BFFB
:10B3800052EA033591EA030F41F4002130BD00BFBA
:10B3900090F0000F04BF0021704730B54FF4806477
:10B3A00004F132044FF000054FF0000150E700BFF8
:10B3B00090F0000F04BF0021704730B54FF4806457
:10B3C00004F1320410F0004548BF40424FF0000144
:10B3D0003EE700BF42004FEAE2014FEA31014FEA87
:10B3E00002701FBF12F07F4393F07F4F81F06051D6
:10B3F000704732F07F4208BF704793F07F4F04BF21
:10B4000041F40021704730B54FF4607401F00045FD
:10B4100021F000411CE700BF50EA010208BF70475D
:10B4200030B54FF000050AE050EA010208BF70474E
:10B4300030B511F0004502D5404261EB41014FF4B7
:10B44000806404F132045FEA915C3FF4D8AE4FF0BF
:10B4500003025FEADC0C18BF03325FEADC0C18BFA2
:10B46000033202EBDC02C2F1200300FA03FC20FAF3
:10B4700002F001FA03FE40EA0E0021FA02F1144440
:10B48000BDE600BF70B54FF0FF0C4CF4E06C1CEA59
:10B4900011541DBF1CEA135594EA0C0F95EA0C0FCA
:10B4A00000F0DEF82C4481EA030621EA4C5123EA3D
:10B4B0004C5350EA013518BF52EA033541F480116C
:10B4C00043F4801338D0A0FB02CE4FF00005E1FB1F
:10B4D00002E506F00042E0FB03E54FF00006E1FB69
:10B4E00003569CF0000F18BF4EF0010EA4F1FF04AC
:10B4F000B6F5007F64F5407404D25FEA4E0E6D41EC
:10B5000046EB060642EAC62141EA55514FEAC520FC
:10B5100040EA5E504FEACE2EB4F1FD0C88BFBCF578
:10B52000E06F1ED8BEF1004F08BF5FEA500E50F129
:10B53000000041EB045170BD06F0004646EA0101EF
:10B5400040EA020081EA0301B4EB5C04C2BFD4EB21
:10B550000C0541EA045170BD41F480114FF0000E1A
:10B56000013C00F3AB8014F1360FDEBF002001F088
:10B57000004170BDC4F10004203C35DA0C341BDC02
:10B5800004F11404C4F1200500FA05F320FA04F0D4
:10B5900001FA05F240EA020001F0004221F0004108
:10B5A00010EBD37021FA04F642EB06015EEA430E7B
:10B5B00008BF20EAD37070BDC4F10C04C4F12005AB
:10B5C00000FA04F320FA05F001FA04F240EA02005E
:10B5D00001F0004110EBD37041F100015EEA430E2F
:10B5E00008BF20EAD37070BDC4F1200500FA05F24F
:10B5F0004EEA020E20FA04F301FA05F243EA0203CE
:10B6000021FA04F001F0004121FA04F220EA0200DC
:10B6100000EBD3705EEA430E08BF20EAD37070BD22
:10B6200094F0000F0FD101F00046400041EB010102
:10B6300011F4801F08BF013CF7D041EA060195F0E4
:10B64000000F18BF704703F00046520043EB03039E
:10B6500013F4801F08BF013DF7D043EA060370478B
:10B6600094EA0C0F0CEA135518BF95EA0C0F0CD096
:10B6700050EA410618BF52EA4306D1D181EA0301DC
:10B6800001F000414FF0000070BD50EA410606BFD6
:10B690001046194652EA430619D094EA0C0F02D11B
:10B6A00050EA013613D195EA0C0F05D152EA033660
:10B6B0001CBF104619460AD181EA030101F000417E
:10B6C00041F0FE4141F470014FF0000070BD41F0C7
:10B6D000FE4141F4780170BD70B54FF0FF0C4CF4A1
:10B6E000E06C1CEA11541DBF1CEA135594EA0C0FC0
:10B6F00095EA0C0F00F0A7F8A4EB050481EA030E0D
:10B7000052EA03354FEA013100F088804FEA0333F3
:10B710004FF0805545EA131343EA12634FEA0222C1
:10B7200045EA111545EA10654FEA00260EF0004182
:10B730009D4208BF964244F1FD0404F5407402D2D4
:10B740005B084FEA3202B61A65EB03055B084FEA65
:10B7500032024FF480104FF4002CB6EB020E75EB62
:10B76000030E22BFB61A754640EA0C005B084FEA8A
:10B770003202B6EB020E75EB030E22BFB61A754607
:10B7800040EA5C005B084FEA3202B6EB020E75EB52
:10B79000030E22BFB61A754640EA9C005B084FEACA
:10B7A0003202B6EB020E75EB030E22BFB61A7546D7
:10B7B00040EADC0055EA060E18D04FEA051545EAC6
:10B7C00016754FEA06164FEAC30343EA52734FEA6F
:10B7D000C2025FEA1C1CC0D111F4801F0BD141EAE8
:10B7E00000014FF000004FF0004CB6E711F4801F4D
:10B7F00004BF01430020B4F1FD0C88BFBCF5E06F2D
:10B800003FF6AFAEB5EB030C04BFB6EB020C5FEA3C
:10B81000500C50F1000041EB045170BD0EF0004E91
:10B820004EEA113114EB5C04C2BFD4EB0C0541EAC3
:10B83000045170BD41F480114FF0000E013C90E6C0
:10B8400045EA060E8DE60CEA135594EA0C0F08BF84
:10B8500095EA0C0F3FF43BAF94EA0C0F0AD150EA83
:10B8600001347FF434AF95EA0C0F7FF425AF104616
:10B8700019462CE795EA0C0F06D152EA03353FF43E
:10B88000FDAE1046194622E750EA410618BF52EABB
:10B8900043067FF4C5AE50EA41047FF40DAF52EA8F
:10B8A00043057FF4EBAE12E708B5074B044613B12E
:10B8B0000021AFF30080054B1868836A03B19847F5
:10B8C000204602F0A3F900BF0000000004DF0200E0
:10B8D00070B50D4E0D4CA41BA4100025A54209D136
:10B8E0000B4E0C4C02F094F9A41BA4100025A542A9
:10B8F00005D170BD56F8253098470135EEE756F86A
:10B90000253098470135F2E7FC360020FC36002050
:10B91000FC3600200C370020024B0146186800F06E
:10B9200097B800BF2C350020024B0146186800F084
:10B9300041B800BF2C35002082B001B901A942B145
:10B940004BB113780B601278101C18BF012002B0A5
:10B9500070471046FBE76FF00100F8E710B5431E93
:10B960000A44914200D110BD11F8014B03F8014F78
:10B97000F7E7884210B501EB020307D8421E99424F
:10B980000AD011F8014B02F8014FF8E78342F5D9CC
:10B990008118D21AD34200D110BD13F8014D01F81D
:10B9A000014DF7E702440346934200D1704703F884
:10B9B000011BF9E738B50546002945D051F8043C8C
:10B9C0000C1F002BB8BFE41801F0E2FB1F4A1368FC
:10B9D000104633B9636014602846BDE8384001F072
:10B9E000D8BBA3420CD921686218934204BF1A68DD
:10B9F0005B68636004BF521822600460ECE7134682
:10BA00005A680AB1A242FAD919685818A0420BD153
:10BA100020680144581882421960DDD110685268CC
:10BA20005A6001441960D7E702D90C232B60D3E791
:10BA3000206821188A4204BF11685268626004BFFE
:10BA4000091821605C60C7E738BD00BF6C5B00204F
:10BA500070B5CD1C25F0030508350C2D38BF0C251D
:10BA6000002D064601DBA94203D90C2333600020D8
:10BA700070BD01F08DFB214A1468214691B9204C1C
:10BA800023681BB9304600F099FC206029463046F7
:10BA900000F094FC431C24D10C233360304601F0A9
:10BAA00078FBE4E70B685B1B18D40B2B0FD90B60FA
:10BAB000CD50CC18304601F06CFB04F10B00231D77
:10BAC00020F00700C31AD3D05A42E250D0E78C428C
:10BAD0004B6816BF636013600C46EBE70C46496881
